{
  "contractName": "CrowdsaleForAngel",
  "abi": [
    {
      "inputs": [
        {
          "internalType": "contract IERC20",
          "name": "token",
          "type": "address"
        },
        {
          "internalType": "address",
          "name": "tokenWallet",
          "type": "address"
        }
      ],
      "payable": false,
      "stateMutability": "nonpayable",
      "type": "constructor"
    },
    {
      "anonymous": false,
      "inputs": [
        {
          "indexed": true,
          "internalType": "address",
          "name": "previousOwner",
          "type": "address"
        },
        {
          "indexed": true,
          "internalType": "address",
          "name": "newOwner",
          "type": "address"
        }
      ],
      "name": "OwnershipTransferred",
      "type": "event"
    },
    {
      "constant": true,
      "inputs": [
        {
          "internalType": "address",
          "name": "",
          "type": "address"
        }
      ],
      "name": "TokenVestingInfoByBeneficiaryToken",
      "outputs": [
        {
          "internalType": "address",
          "name": "tokenVesting",
          "type": "address"
        },
        {
          "internalType": "uint256",
          "name": "tokenAmount",
          "type": "uint256"
        }
      ],
      "payable": false,
      "stateMutability": "view",
      "type": "function"
    },
    {
      "constant": true,
      "inputs": [],
      "name": "isOwner",
      "outputs": [
        {
          "internalType": "bool",
          "name": "",
          "type": "bool"
        }
      ],
      "payable": false,
      "stateMutability": "view",
      "type": "function"
    },
    {
      "constant": true,
      "inputs": [
        {
          "internalType": "address",
          "name": "",
          "type": "address"
        }
      ],
      "name": "joined",
      "outputs": [
        {
          "internalType": "uint256",
          "name": "",
          "type": "uint256"
        }
      ],
      "payable": false,
      "stateMutability": "view",
      "type": "function"
    },
    {
      "constant": true,
      "inputs": [],
      "name": "owner",
      "outputs": [
        {
          "internalType": "address",
          "name": "",
          "type": "address"
        }
      ],
      "payable": false,
      "stateMutability": "view",
      "type": "function"
    },
    {
      "constant": false,
      "inputs": [],
      "name": "renounceOwnership",
      "outputs": [],
      "payable": false,
      "stateMutability": "nonpayable",
      "type": "function"
    },
    {
      "constant": false,
      "inputs": [
        {
          "internalType": "address",
          "name": "newOwner",
          "type": "address"
        }
      ],
      "name": "transferOwnership",
      "outputs": [],
      "payable": false,
      "stateMutability": "nonpayable",
      "type": "function"
    },
    {
      "constant": false,
      "inputs": [
        {
          "components": [
            {
              "internalType": "address",
              "name": "token",
              "type": "address"
            },
            {
              "internalType": "uint256",
              "name": "amount",
              "type": "uint256"
            }
          ],
          "internalType": "struct CrowdsaleForAngel.ReportInfo[]",
          "name": "list",
          "type": "tuple[]"
        }
      ],
      "name": "updateList",
      "outputs": [],
      "payable": false,
      "stateMutability": "nonpayable",
      "type": "function"
    }
  ],
  "bytecode": "0x60806040523480156200001157600080fd5b50604051620031363803806200313683398181016040526200003791908101906200028d565b6000620000496200025760201b60201c565b9050806000806101000a81548173ffffffffffffffffffffffffffffffffffffffff021916908373ffffffffffffffffffffffffffffffffffffffff1602179055508073ffffffffffffffffffffffffffffffffffffffff16600073ffffffffffffffffffffffffffffffffffffffff167f8be0079c531659141344cd1fd0a4f28419497f9722a3daafe3b4186f6b6457e060405160405180910390a350600073ffffffffffffffffffffffffffffffffffffffff168273ffffffffffffffffffffffffffffffffffffffff1614156200015a576040517f08c379a00000000000000000000000000000000000000000000000000000000081526004016200015190620003c0565b60405180910390fd5b600073ffffffffffffffffffffffffffffffffffffffff168173ffffffffffffffffffffffffffffffffffffffff161415620001cd576040517f08c379a0000000000000000000000000000000000000000000000000000000008152600401620001c4906200039e565b60405180910390fd5b81600160006101000a81548173ffffffffffffffffffffffffffffffffffffffff021916908373ffffffffffffffffffffffffffffffffffffffff16021790555080600260006101000a81548173ffffffffffffffffffffffffffffffffffffffff021916908373ffffffffffffffffffffffffffffffffffffffff16021790555050506200046f565b600033905090565b60008151905062000270816200043b565b92915050565b600081519050620002878162000455565b92915050565b60008060408385031215620002a157600080fd5b6000620002b18582860162000276565b9250506020620002c4858286016200025f565b9150509250929050565b6000620002dd603383620003e2565b91507f43726f776473616c65466f72416e67656c3a20746f6b656e2077616c6c65742060008301527f697320746865207a65726f2061646472657373000000000000000000000000006020830152604082019050919050565b600062000345602c83620003e2565b91507f43726f776473616c65466f72416e67656c3a20746f6b656e206973207468652060008301527f7a65726f206164647265737300000000000000000000000000000000000000006020830152604082019050919050565b60006020820190508181036000830152620003b981620002ce565b9050919050565b60006020820190508181036000830152620003db8162000336565b9050919050565b600082825260208201905092915050565b600062000400826200041b565b9050919050565b60006200041482620003f3565b9050919050565b600073ffffffffffffffffffffffffffffffffffffffff82169050919050565b6200044681620003f3565b81146200045257600080fd5b50565b620004608162000407565b81146200046c57600080fd5b50565b612cb7806200047f6000396000f3fe60806040523480156200001157600080fd5b5060043610620000885760003560e01c80638da5cb5b11620000635780638da5cb5b14620000f05780638f32d59b1462000112578063f2fde38b1462000134578063f887d01914620001545762000088565b8063715018a6146200008d57806371d0e2c014620000995780637bfa4a7b14620000d0575b600080fd5b620000976200018a565b005b620000b76004803603620000b1919081019062000cd6565b62000295565b604051620000c79291906200111e565b60405180910390f35b620000ee6004803603620000e8919081019062000d02565b620002d9565b005b620000fa620003d3565b604051620001099190620010c4565b60405180910390f35b6200011c620003fc565b6040516200012b91906200114b565b60405180910390f35b6200015260048036036200014c919081019062000cd6565b6200045c565b005b6200017260048036036200016c919081019062000cd6565b620004b6565b60405162000181919062001278565b60405180910390f35b62000194620003fc565b620001d6576040517f08c379a0000000000000000000000000000000000000000000000000000000008152600401620001cd9062001212565b60405180910390fd5b600073ffffffffffffffffffffffffffffffffffffffff166000809054906101000a900473ffffffffffffffffffffffffffffffffffffffff1673ffffffffffffffffffffffffffffffffffffffff167f8be0079c531659141344cd1fd0a4f28419497f9722a3daafe3b4186f6b6457e060405160405180910390a360008060006101000a81548173ffffffffffffffffffffffffffffffffffffffff021916908373ffffffffffffffffffffffffffffffffffffffff160217905550565b60046020528060005260406000206000915090508060000160009054906101000a900473ffffffffffffffffffffffffffffffffffffffff16908060010154905082565b620002e3620003fc565b62000325576040517f08c379a00000000000000000000000000000000000000000000000000000000081526004016200031c9062001212565b60405180910390fd5b60008151116200036c576040517f08c379a00000000000000000000000000000000000000000000000000000000081526004016200036390620011f0565b60405180910390fd5b60008090505b8151811015620003cf576200038662000b73565b8282815181106200039357fe5b60200260200101519050600081602001511115620003c057620003bf81600001518260200151620004ce565b5b50808060010191505062000372565b5050565b60008060009054906101000a900473ffffffffffffffffffffffffffffffffffffffff16905090565b60008060009054906101000a900473ffffffffffffffffffffffffffffffffffffffff1673ffffffffffffffffffffffffffffffffffffffff16620004406200076c565b73ffffffffffffffffffffffffffffffffffffffff1614905090565b62000466620003fc565b620004a8576040517f08c379a00000000000000000000000000000000000000000000000000000000081526004016200049f9062001212565b60405180910390fd5b620004b38162000774565b50565b60036020528060005260406000206000915090505481565b60006012600a0a820290506200052d81600360008673ffffffffffffffffffffffffffffffffffffffff1673ffffffffffffffffffffffffffffffffffffffff16815260200190815260200160002054620008a590919063ffffffff16565b600360008573ffffffffffffffffffffffffffffffffffffffff1673ffffffffffffffffffffffffffffffffffffffff168152602001908152602001600020819055506000600460008573ffffffffffffffffffffffffffffffffffffffff1673ffffffffffffffffffffffffffffffffffffffff1681526020019081526020016000209050600073ffffffffffffffffffffffffffffffffffffffff168160000160009054906101000a900473ffffffffffffffffffffffffffffffffffffffff1673ffffffffffffffffffffffffffffffffffffffff161462000649576040517f08c379a00000000000000000000000000000000000000000000000000000000081526004016200064090620011ce565b60405180910390fd5b8342604051620006599062000ba3565b620006669291906200111e565b604051809103906000f08015801562000683573d6000803e3d6000fd5b508160000160006101000a81548173ffffffffffffffffffffffffffffffffffffffff021916908373ffffffffffffffffffffffffffffffffffffffff16021790555081816001018190555062000766600260009054906101000a900473ffffffffffffffffffffffffffffffffffffffff168260000160009054906101000a900473ffffffffffffffffffffffffffffffffffffffff1684600160009054906101000a900473ffffffffffffffffffffffffffffffffffffffff1673ffffffffffffffffffffffffffffffffffffffff16620008fd909392919063ffffffff16565b50505050565b600033905090565b600073ffffffffffffffffffffffffffffffffffffffff168173ffffffffffffffffffffffffffffffffffffffff161415620007e7576040517f08c379a0000000000000000000000000000000000000000000000000000000008152600401620007de9062001168565b60405180910390fd5b8073ffffffffffffffffffffffffffffffffffffffff166000809054906101000a900473ffffffffffffffffffffffffffffffffffffffff1673ffffffffffffffffffffffffffffffffffffffff167f8be0079c531659141344cd1fd0a4f28419497f9722a3daafe3b4186f6b6457e060405160405180910390a3806000806101000a81548173ffffffffffffffffffffffffffffffffffffffff021916908373ffffffffffffffffffffffffffffffffffffffff16021790555050565b600080828401905083811015620008f3576040517f08c379a0000000000000000000000000000000000000000000000000000000008152600401620008ea906200118a565b60405180910390fd5b8091505092915050565b6200099d848573ffffffffffffffffffffffffffffffffffffffff166323b872dd905060e01b8585856040516024016200093a93929190620010e1565b604051602081830303815290604052907bffffffffffffffffffffffffffffffffffffffffffffffffffffffff19166020820180517bffffffffffffffffffffffffffffffffffffffffffffffffffffffff8381831617835250505050620009a3565b50505050565b620009c48273ffffffffffffffffffffffffffffffffffffffff1662000b27565b62000a06576040517f08c379a0000000000000000000000000000000000000000000000000000000008152600401620009fd9062001256565b60405180910390fd5b600060608373ffffffffffffffffffffffffffffffffffffffff168360405162000a319190620010ab565b6000604051808303816000865af19150503d806000811462000a70576040519150601f19603f3d011682016040523d82523d6000602084013e62000a75565b606091505b50915091508162000abd576040517f08c379a000000000000000000000000000000000000000000000000000000000815260040162000ab490620011ac565b60405180910390fd5b60008151111562000b21578080602001905162000ade919081019062000d47565b62000b20576040517f08c379a000000000000000000000000000000000000000000000000000000000815260040162000b179062001234565b60405180910390fd5b5b50505050565b60008060007fc5d2460186f7233c927e7db2dcc703c0e500b653ca82273b7bfad8045d85a47060001b9050833f915080821415801562000b6a57506000801b8214155b92505050919050565b6040518060400160405280600073ffffffffffffffffffffffffffffffffffffffff168152602001600081525090565b61189380620013e283390190565b60008135905062000bc28162001393565b92915050565b600082601f83011262000bda57600080fd5b813562000bf162000beb82620012c3565b62001295565b9150818183526020840193506020810190508385604084028201111562000c1757600080fd5b60005b8381101562000c4b578162000c30888262000c6c565b84526020840193506040830192505060018101905062000c1a565b5050505092915050565b60008151905062000c6681620013ad565b92915050565b60006040828403121562000c7f57600080fd5b62000c8b604062001295565b9050600062000c9d8482850162000bb1565b600083015250602062000cb38482850162000cbf565b60208301525092915050565b60008135905062000cd081620013c7565b92915050565b60006020828403121562000ce957600080fd5b600062000cf98482850162000bb1565b91505092915050565b60006020828403121562000d1557600080fd5b600082013567ffffffffffffffff81111562000d3057600080fd5b62000d3e8482850162000bc8565b91505092915050565b60006020828403121562000d5a57600080fd5b600062000d6a8482850162000c55565b91505092915050565b62000d7e8162001313565b82525050565b62000d8f8162001327565b82525050565b600062000da282620012ec565b62000dae8185620012f7565b935062000dc08185602086016200135d565b80840191505092915050565b600062000ddb60268362001302565b91507f4f776e61626c653a206e6577206f776e657220697320746865207a65726f206160008301527f64647265737300000000000000000000000000000000000000000000000000006020830152604082019050919050565b600062000e43601b8362001302565b91507f536166654d6174683a206164646974696f6e206f766572666c6f7700000000006000830152602082019050919050565b600062000e8560208362001302565b91507f5361666545524332303a206c6f772d6c6576656c2063616c6c206661696c65646000830152602082019050919050565b600062000ec760478362001302565b91507f43726f776473616c65466f72416e67656c3a3a6465706c6f793a20546865206160008301527f646472657373206861732070617274696369706174656420696e2063726f776460208301527f66756e64696e67000000000000000000000000000000000000000000000000006040830152606082019050919050565b600062000f5560278362001302565b91507f43726f776473616c65466f72416e67656cefbc9a206c6973742061727261792060008301527f6973206e756c6c000000000000000000000000000000000000000000000000006020830152604082019050919050565b600062000fbd60208362001302565b91507f4f776e61626c653a2063616c6c6572206973206e6f7420746865206f776e65726000830152602082019050919050565b600062000fff602a8362001302565b91507f5361666545524332303a204552433230206f7065726174696f6e20646964206e60008301527f6f742073756363656564000000000000000000000000000000000000000000006020830152604082019050919050565b600062001067601f8362001302565b91507f5361666545524332303a2063616c6c20746f206e6f6e2d636f6e7472616374006000830152602082019050919050565b620010a58162001353565b82525050565b6000620010b9828462000d95565b915081905092915050565b6000602082019050620010db600083018462000d73565b92915050565b6000606082019050620010f8600083018662000d73565b62001107602083018562000d73565b6200111660408301846200109a565b949350505050565b600060408201905062001135600083018562000d73565b6200114460208301846200109a565b9392505050565b600060208201905062001162600083018462000d84565b92915050565b60006020820190508181036000830152620011838162000dcc565b9050919050565b60006020820190508181036000830152620011a58162000e34565b9050919050565b60006020820190508181036000830152620011c78162000e76565b9050919050565b60006020820190508181036000830152620011e98162000eb8565b9050919050565b600060208201905081810360008301526200120b8162000f46565b9050919050565b600060208201905081810360008301526200122d8162000fae565b9050919050565b600060208201905081810360008301526200124f8162000ff0565b9050919050565b60006020820190508181036000830152620012718162001058565b9050919050565b60006020820190506200128f60008301846200109a565b92915050565b6000604051905081810181811067ffffffffffffffff82111715620012b957600080fd5b8060405250919050565b600067ffffffffffffffff821115620012db57600080fd5b602082029050602081019050919050565b600081519050919050565b600081905092915050565b600082825260208201905092915050565b6000620013208262001333565b9050919050565b60008115159050919050565b600073ffffffffffffffffffffffffffffffffffffffff82169050919050565b6000819050919050565b60005b838110156200137d57808201518184015260208101905062001360565b838111156200138d576000848401525b50505050565b6200139e8162001313565b8114620013aa57600080fd5b50565b620013b88162001327565b8114620013c457600080fd5b50565b620013d28162001353565b8114620013de57600080fd5b5056fe6080604052604051806080016040528061025861ffff1681526020016104b061ffff1681526020016104b061ffff16815260200161038461ffff1681525060069060046200004f92919062000453565b50604051806080016040528061012c61ffff16815260200161012c61ffff16815260200161025861ffff16815260200161012c61ffff1681525060079060046200009b92919062000453565b506040518060800160405280601460ff168152602001601460ff168152602001601e60ff168152602001601e60ff168152506008906004620000df929190620004ab565b50348015620000ed57600080fd5b506040516200189338038062001893833981810160405260408110156200011357600080fd5b810190808051906020019092919080519060200190929190505050600062000140620003c260201b60201c565b9050806000806101000a81548173ffffffffffffffffffffffffffffffffffffffff021916908373ffffffffffffffffffffffffffffffffffffffff1602179055508073ffffffffffffffffffffffffffffffffffffffff16600073ffffffffffffffffffffffffffffffffffffffff167f8be0079c531659141344cd1fd0a4f28419497f9722a3daafe3b4186f6b6457e060405160405180910390a350600073ffffffffffffffffffffffffffffffffffffffff168273ffffffffffffffffffffffffffffffffffffffff16141562000266576040517f08c379a0000000000000000000000000000000000000000000000000000000008152600401808060200182810382526032815260200180620018616032913960400191505060405180910390fd5b81600160006101000a81548173ffffffffffffffffffffffffffffffffffffffff021916908373ffffffffffffffffffffffffffffffffffffffff1602179055508060028190555060008090505b6006805490508110156200034457620002f660068281548110620002d457fe5b9060005260206000200154600354620003ca60201b62000a981790919060201c565b60038190555062000330600882815481106200030e57fe5b9060005260206000200154600454620003ca60201b62000a981790919060201c565b6004819055508080600101915050620002b4565b50426200036260035483620003ca60201b62000a981790919060201c565b11620003ba576040517f08c379a00000000000000000000000000000000000000000000000000000000081526004018080602001828103825260348152602001806200182d6034913960400191505060405180910390fd5b50506200052a565b600033905090565b60008082840190508381101562000449576040517f08c379a000000000000000000000000000000000000000000000000000000000815260040180806020018281038252601b8152602001807f536166654d6174683a206164646974696f6e206f766572666c6f77000000000081525060200191505060405180910390fd5b8091505092915050565b82805482825590600052602060002090810192821562000498579160200282015b8281111562000497578251829061ffff1690559160200191906001019062000474565b5b509050620004a7919062000502565b5090565b828054828255906000526020600020908101928215620004ef579160200282015b82811115620004ee578251829060ff16905591602001919060010190620004cc565b5b509050620004fe919062000502565b5090565b6200052791905b808211156200052357600081600090555060010162000509565b5090565b90565b6112f3806200053a6000396000f3fe608060405234801561001057600080fd5b506004361061009e5760003560e01c80638da5cb5b116100665780638da5cb5b146101b15780638f32d59b146101fb5780639852595c1461021d578063be9a655514610275578063f2fde38b146102935761009e565b80630fb5a6b4146100a35780631726cbc8146100c1578063191655871461011957806338af3eed1461015d578063715018a6146101a7575b600080fd5b6100ab6102d7565b6040518082815260200191505060405180910390f35b610103600480360360208110156100d757600080fd5b81019080803573ffffffffffffffffffffffffffffffffffffffff1690602001909291905050506102e1565b6040518082815260200191505060405180910390f35b61015b6004803603602081101561012f57600080fd5b81019080803573ffffffffffffffffffffffffffffffffffffffff169060200190929190505050610344565b005b6101656104fb565b604051808273ffffffffffffffffffffffffffffffffffffffff1673ffffffffffffffffffffffffffffffffffffffff16815260200191505060405180910390f35b6101af610525565b005b6101b961065e565b604051808273ffffffffffffffffffffffffffffffffffffffff1673ffffffffffffffffffffffffffffffffffffffff16815260200191505060405180910390f35b610203610687565b604051808215151515815260200191505060405180910390f35b61025f6004803603602081101561023357600080fd5b81019080803573ffffffffffffffffffffffffffffffffffffffff1690602001909291905050506106e5565b6040518082815260200191505060405180910390f35b61027d61072e565b6040518082815260200191505060405180910390f35b6102d5600480360360208110156102a957600080fd5b81019080803573ffffffffffffffffffffffffffffffffffffffff169060200190929190505050610738565b005b6000600354905090565b600061033d600560008473ffffffffffffffffffffffffffffffffffffffff1673ffffffffffffffffffffffffffffffffffffffff1681526020019081526020016000205461032f846107be565b610a4e90919063ffffffff16565b9050919050565b600061034f826102e1565b9050600081116103aa576040517f08c379a000000000000000000000000000000000000000000000000000000000815260040180806020018281038252602481526020018061122a6024913960400191505060405180910390fd5b6103fc81600560008573ffffffffffffffffffffffffffffffffffffffff1673ffffffffffffffffffffffffffffffffffffffff16815260200190815260200160002054610a9890919063ffffffff16565b600560008473ffffffffffffffffffffffffffffffffffffffff1673ffffffffffffffffffffffffffffffffffffffff1681526020019081526020016000208190555061048c600160009054906101000a900473ffffffffffffffffffffffffffffffffffffffff16828473ffffffffffffffffffffffffffffffffffffffff16610b209092919063ffffffff16565b7fc7798891864187665ac6dd119286e44ec13f014527aeeb2b8eb3fd413df931798282604051808373ffffffffffffffffffffffffffffffffffffffff1673ffffffffffffffffffffffffffffffffffffffff1681526020018281526020019250505060405180910390a15050565b6000600160009054906101000a900473ffffffffffffffffffffffffffffffffffffffff16905090565b61052d610687565b61059f576040517f08c379a00000000000000000000000000000000000000000000000000000000081526004018080602001828103825260208152602001807f4f776e61626c653a2063616c6c6572206973206e6f7420746865206f776e657281525060200191505060405180910390fd5b600073ffffffffffffffffffffffffffffffffffffffff166000809054906101000a900473ffffffffffffffffffffffffffffffffffffffff1673ffffffffffffffffffffffffffffffffffffffff167f8be0079c531659141344cd1fd0a4f28419497f9722a3daafe3b4186f6b6457e060405160405180910390a360008060006101000a81548173ffffffffffffffffffffffffffffffffffffffff021916908373ffffffffffffffffffffffffffffffffffffffff160217905550565b60008060009054906101000a900473ffffffffffffffffffffffffffffffffffffffff16905090565b60008060009054906101000a900473ffffffffffffffffffffffffffffffffffffffff1673ffffffffffffffffffffffffffffffffffffffff166106c9610bf1565b73ffffffffffffffffffffffffffffffffffffffff1614905090565b6000600560008373ffffffffffffffffffffffffffffffffffffffff1673ffffffffffffffffffffffffffffffffffffffff168152602001908152602001600020549050919050565b6000600254905090565b610740610687565b6107b2576040517f08c379a00000000000000000000000000000000000000000000000000000000081526004018080602001828103825260208152602001807f4f776e61626c653a2063616c6c6572206973206e6f7420746865206f776e657281525060200191505060405180910390fd5b6107bb81610bf9565b50565b6000808273ffffffffffffffffffffffffffffffffffffffff166370a08231306040518263ffffffff1660e01b8152600401808273ffffffffffffffffffffffffffffffffffffffff1673ffffffffffffffffffffffffffffffffffffffff16815260200191505060206040518083038186803b15801561083e57600080fd5b505afa158015610852573d6000803e3d6000fd5b505050506040513d602081101561086857600080fd5b8101908080519060200190929190505050905060006108cf600560008673ffffffffffffffffffffffffffffffffffffffff1673ffffffffffffffffffffffffffffffffffffffff1681526020019081526020016000205483610a9890919063ffffffff16565b90506108e8600354600254610a9890919063ffffffff16565b42106108f8578092505050610a49565b600080905060008090506000600254905060008090505b600680549050811015610a3f57600061095f6007838154811061092e57fe5b90600052602060002001546006848154811061094657fe5b9060005260206000200154610d3d90919063ffffffff16565b9050600061098d826008858154811061097457fe5b9060005260206000200154610d3d90919063ffffffff16565b905060008090505b82811015610a22576109c7600785815481106109ad57fe5b906000526020600020015486610a9890919063ffffffff16565b9450428511156109da5760019650610a22565b610a13610a046004546109f6858c610d8790919063ffffffff16565b610d3d90919063ffffffff16565b87610a9890919063ffffffff16565b95508080600101915050610995565b508515610a30575050610a3f565b5050808060010191505061090f565b5081955050505050505b919050565b6000610a9083836040518060400160405280601e81526020017f536166654d6174683a207375627472616374696f6e206f766572666c6f770000815250610e0d565b905092915050565b600080828401905083811015610b16576040517f08c379a000000000000000000000000000000000000000000000000000000000815260040180806020018281038252601b8152602001807f536166654d6174683a206164646974696f6e206f766572666c6f77000000000081525060200191505060405180910390fd5b8091505092915050565b610bec838473ffffffffffffffffffffffffffffffffffffffff1663a9059cbb905060e01b8484604051602401808373ffffffffffffffffffffffffffffffffffffffff1673ffffffffffffffffffffffffffffffffffffffff16815260200182815260200192505050604051602081830303815290604052907bffffffffffffffffffffffffffffffffffffffffffffffffffffffff19166020820180517bffffffffffffffffffffffffffffffffffffffffffffffffffffffff8381831617835250505050610ecd565b505050565b600033905090565b600073ffffffffffffffffffffffffffffffffffffffff168173ffffffffffffffffffffffffffffffffffffffff161415610c7f576040517f08c379a000000000000000000000000000000000000000000000000000000000815260040180806020018281038252602681526020018061124e6026913960400191505060405180910390fd5b8073ffffffffffffffffffffffffffffffffffffffff166000809054906101000a900473ffffffffffffffffffffffffffffffffffffffff1673ffffffffffffffffffffffffffffffffffffffff167f8be0079c531659141344cd1fd0a4f28419497f9722a3daafe3b4186f6b6457e060405160405180910390a3806000806101000a81548173ffffffffffffffffffffffffffffffffffffffff021916908373ffffffffffffffffffffffffffffffffffffffff16021790555050565b6000610d7f83836040518060400160405280601a81526020017f536166654d6174683a206469766973696f6e206279207a65726f000000000000815250611118565b905092915050565b600080831415610d9a5760009050610e07565b6000828402905082848281610dab57fe5b0414610e02576040517f08c379a00000000000000000000000000000000000000000000000000000000081526004018080602001828103825260218152602001806112746021913960400191505060405180910390fd5b809150505b92915050565b6000838311158290610eba576040517f08c379a00000000000000000000000000000000000000000000000000000000081526004018080602001828103825283818151815260200191508051906020019080838360005b83811015610e7f578082015181840152602081019050610e64565b50505050905090810190601f168015610eac5780820380516001836020036101000a031916815260200191505b509250505060405180910390fd5b5060008385039050809150509392505050565b610eec8273ffffffffffffffffffffffffffffffffffffffff166111de565b610f5e576040517f08c379a000000000000000000000000000000000000000000000000000000000815260040180806020018281038252601f8152602001807f5361666545524332303a2063616c6c20746f206e6f6e2d636f6e74726163740081525060200191505060405180910390fd5b600060608373ffffffffffffffffffffffffffffffffffffffff16836040518082805190602001908083835b60208310610fad5780518252602082019150602081019050602083039250610f8a565b6001836020036101000a0380198251168184511680821785525050505050509050019150506000604051808303816000865af19150503d806000811461100f576040519150601f19603f3d011682016040523d82523d6000602084013e611014565b606091505b50915091508161108c576040517f08c379a00000000000000000000000000000000000000000000000000000000081526004018080602001828103825260208152602001807f5361666545524332303a206c6f772d6c6576656c2063616c6c206661696c656481525060200191505060405180910390fd5b600081511115611112578080602001905160208110156110ab57600080fd5b8101908080519060200190929190505050611111576040517f08c379a000000000000000000000000000000000000000000000000000000000815260040180806020018281038252602a815260200180611295602a913960400191505060405180910390fd5b5b50505050565b600080831182906111c4576040517f08c379a00000000000000000000000000000000000000000000000000000000081526004018080602001828103825283818151815260200191508051906020019080838360005b8381101561118957808201518184015260208101905061116e565b50505050905090810190601f1680156111b65780820380516001836020036101000a031916815260200191505b509250505060405180910390fd5b5060008385816111d057fe5b049050809150509392505050565b60008060007fc5d2460186f7233c927e7db2dcc703c0e500b653ca82273b7bfad8045d85a47060001b9050833f915080821415801561122057506000801b8214155b9250505091905056fe546f6b656e56657374696e67416e67656c3a206e6f20746f6b656e7320617265206475654f776e61626c653a206e6577206f776e657220697320746865207a65726f2061646472657373536166654d6174683a206d756c7469706c69636174696f6e206f766572666c6f775361666545524332303a204552433230206f7065726174696f6e20646964206e6f742073756363656564a265627a7a723158206df98b1a212011cf1a3eaa27323308fc1a524020ca78f01c6b28390ed695e53c64736f6c63430005100032546f6b656e56657374696e67416e67656c3a2066696e616c2074696d65206973206265666f72652063757272656e742074696d65546f6b656e56657374696e67416e67656c3a2062656e656669636961727920697320746865207a65726f2061646472657373a365627a7a7231582056c9ff6c198f7ff36e95a14a1b865507e118b676bd818edb775f1a09efe441626c6578706572696d656e74616cf564736f6c63430005100040",
  "source": "pragma solidity ^0.5.0;\r\npragma experimental ABIEncoderV2;\r\n\r\nimport \"@openzeppelin/contracts/ownership/Ownable.sol\";\r\nimport \"@openzeppelin/contracts/math/SafeMath.sol\";\r\nimport \"@openzeppelin/contracts/token/ERC20/IERC20.sol\";\r\nimport \"@openzeppelin/contracts/token/ERC20/SafeERC20.sol\";\r\nimport \"./CrowdsaleByERC20/emission/TokenVestingAngel.sol\";\r\n\r\ncontract CrowdsaleForAngel is Ownable {\r\n    using SafeMath for uint256;\r\n    using SafeERC20 for IERC20;\r\n\r\n    // \r\n    IERC20 private _token;\r\n    address private _tokenWallet;\r\n\r\n    // \r\n    mapping(address => uint256) public joined;\r\n\r\n    // \r\n    struct ReportInfo {\r\n        address token;\r\n        uint256 amount;\r\n    }\r\n\r\n    // \r\n    struct TokenVestingInfo {\r\n        address tokenVesting;\r\n        uint256 tokenAmount;\r\n    }\r\n\r\n    // Token\r\n    mapping(address => TokenVestingInfo) public TokenVestingInfoByBeneficiaryToken;\r\n\r\n    constructor(IERC20 token, address tokenWallet) Ownable() public {\r\n        require(address(token) != address(0), \"CrowdsaleForAngel: token is the zero address\");\r\n        require(tokenWallet != address(0), \"CrowdsaleForAngel: token wallet is the zero address\");\r\n        \r\n        _token = token;\r\n        _tokenWallet = tokenWallet;\r\n    }\r\n\r\n    // \r\n    function updateList(ReportInfo[] memory list) public onlyOwner {\r\n        require(list.length > 0, \"CrowdsaleForAngel list array is null\");\r\n        for (uint i = 0; i < list.length; i++) {\r\n            ReportInfo memory reportInfo = list[i];\r\n            if (reportInfo.amount > 0) {\r\n                _deliverTokens(reportInfo.token, reportInfo.amount);\r\n            }\r\n        }\r\n    }\r\n\r\n    // \r\n    function _deliverTokens(address beneficiary, uint256 amount) internal {\r\n        uint256 tokenAmount = amount * (10**uint256(18));\r\n        // \r\n        joined[beneficiary] = joined[beneficiary].add(tokenAmount);\r\n\r\n        TokenVestingInfo storage info = TokenVestingInfoByBeneficiaryToken[beneficiary];\r\n        require(info.tokenVesting == address(0), 'CrowdsaleForAngel::deploy: The address has participated in crowdfunding');\r\n\r\n        info.tokenVesting = address(new TokenVestingAngel(\r\n            beneficiary, // \r\n            block.timestamp // \r\n        ));\r\n        info.tokenAmount = tokenAmount;\r\n        // \r\n        _token.safeTransferFrom(_tokenWallet, info.tokenVesting, tokenAmount);\r\n    }\r\n}\r\n",
  "sourcePath": "/home/blues/Workspaces/DaoswapDex/daoswapdex-heco-testnet/core-crowdsale/contracts/Crowdsale/CrowdsaleForAngel.sol",
  "compiler": {
    "name": "solc",
    "version": "0.5.16+commit.9c3226ce.Emscripten.clang"
  },
  "schemaVersion": "3.3.4",
  "updatedAt": "2021-06-25T20:45:11.185Z",
  "devdoc": {
    "methods": {
      "isOwner()": {
        "details": "Returns true if the caller is the current owner."
      },
      "owner()": {
        "details": "Returns the address of the current owner."
      },
      "renounceOwnership()": {
        "details": "Leaves the contract without owner. It will not be possible to call `onlyOwner` functions anymore. Can only be called by the current owner.     * NOTE: Renouncing ownership will leave the contract without an owner, thereby removing any functionality that is only available to the owner."
      },
      "transferOwnership(address)": {
        "details": "Transfers ownership of the contract to a new account (`newOwner`). Can only be called by the current owner."
      }
    }
  },
  "userdoc": {
    "methods": {}
  }
}