{
  "contractName": "CrowdsaleForRetail",
  "abi": [
    {
      "inputs": [
        {
          "internalType": "contract IERC20",
          "name": "purchaseToken",
          "type": "address"
        },
        {
          "internalType": "uint256",
          "name": "rate",
          "type": "uint256"
        },
        {
          "internalType": "address payable",
          "name": "wallet",
          "type": "address"
        },
        {
          "internalType": "contract IERC20",
          "name": "token",
          "type": "address"
        },
        {
          "internalType": "address",
          "name": "tokenWallet",
          "type": "address"
        },
        {
          "internalType": "uint256",
          "name": "openingTime",
          "type": "uint256"
        },
        {
          "internalType": "uint256",
          "name": "closingTime",
          "type": "uint256"
        },
        {
          "internalType": "uint256",
          "name": "cap",
          "type": "uint256"
        }
      ],
      "payable": false,
      "stateMutability": "nonpayable",
      "type": "constructor"
    },
    {
      "anonymous": false,
      "inputs": [
        {
          "indexed": false,
          "internalType": "uint256",
          "name": "prevClosingTime",
          "type": "uint256"
        },
        {
          "indexed": false,
          "internalType": "uint256",
          "name": "newClosingTime",
          "type": "uint256"
        }
      ],
      "name": "TimedCrowdsaleExtended",
      "type": "event"
    },
    {
      "anonymous": false,
      "inputs": [
        {
          "indexed": true,
          "internalType": "address",
          "name": "purchaser",
          "type": "address"
        },
        {
          "indexed": true,
          "internalType": "address",
          "name": "beneficiary",
          "type": "address"
        },
        {
          "indexed": false,
          "internalType": "uint256",
          "name": "value",
          "type": "uint256"
        },
        {
          "indexed": false,
          "internalType": "uint256",
          "name": "amount",
          "type": "uint256"
        }
      ],
      "name": "TokensPurchased",
      "type": "event"
    },
    {
      "payable": true,
      "stateMutability": "payable",
      "type": "fallback"
    },
    {
      "constant": true,
      "inputs": [
        {
          "internalType": "address",
          "name": "",
          "type": "address"
        }
      ],
      "name": "TokenVestingInfoByBeneficiaryToken",
      "outputs": [
        {
          "internalType": "address",
          "name": "tokenVesting",
          "type": "address"
        },
        {
          "internalType": "uint256",
          "name": "tokenAmount",
          "type": "uint256"
        }
      ],
      "payable": false,
      "stateMutability": "view",
      "type": "function"
    },
    {
      "constant": false,
      "inputs": [
        {
          "internalType": "uint256",
          "name": "amount",
          "type": "uint256"
        }
      ],
      "name": "buyTokens",
      "outputs": [],
      "payable": true,
      "stateMutability": "payable",
      "type": "function"
    },
    {
      "constant": true,
      "inputs": [],
      "name": "cap",
      "outputs": [
        {
          "internalType": "uint256",
          "name": "",
          "type": "uint256"
        }
      ],
      "payable": false,
      "stateMutability": "view",
      "type": "function"
    },
    {
      "constant": true,
      "inputs": [],
      "name": "capReached",
      "outputs": [
        {
          "internalType": "bool",
          "name": "",
          "type": "bool"
        }
      ],
      "payable": false,
      "stateMutability": "view",
      "type": "function"
    },
    {
      "constant": true,
      "inputs": [],
      "name": "closingTime",
      "outputs": [
        {
          "internalType": "uint256",
          "name": "",
          "type": "uint256"
        }
      ],
      "payable": false,
      "stateMutability": "view",
      "type": "function"
    },
    {
      "constant": true,
      "inputs": [],
      "name": "hasClosed",
      "outputs": [
        {
          "internalType": "bool",
          "name": "",
          "type": "bool"
        }
      ],
      "payable": false,
      "stateMutability": "view",
      "type": "function"
    },
    {
      "constant": true,
      "inputs": [],
      "name": "isOpen",
      "outputs": [
        {
          "internalType": "bool",
          "name": "",
          "type": "bool"
        }
      ],
      "payable": false,
      "stateMutability": "view",
      "type": "function"
    },
    {
      "constant": true,
      "inputs": [
        {
          "internalType": "address",
          "name": "",
          "type": "address"
        }
      ],
      "name": "joined",
      "outputs": [
        {
          "internalType": "uint256",
          "name": "",
          "type": "uint256"
        }
      ],
      "payable": false,
      "stateMutability": "view",
      "type": "function"
    },
    {
      "constant": true,
      "inputs": [],
      "name": "openingTime",
      "outputs": [
        {
          "internalType": "uint256",
          "name": "",
          "type": "uint256"
        }
      ],
      "payable": false,
      "stateMutability": "view",
      "type": "function"
    },
    {
      "constant": true,
      "inputs": [],
      "name": "rate",
      "outputs": [
        {
          "internalType": "uint256",
          "name": "",
          "type": "uint256"
        }
      ],
      "payable": false,
      "stateMutability": "view",
      "type": "function"
    },
    {
      "constant": true,
      "inputs": [],
      "name": "remainingTokens",
      "outputs": [
        {
          "internalType": "uint256",
          "name": "",
          "type": "uint256"
        }
      ],
      "payable": false,
      "stateMutability": "view",
      "type": "function"
    },
    {
      "constant": true,
      "inputs": [],
      "name": "token",
      "outputs": [
        {
          "internalType": "contract IERC20",
          "name": "",
          "type": "address"
        }
      ],
      "payable": false,
      "stateMutability": "view",
      "type": "function"
    },
    {
      "constant": true,
      "inputs": [],
      "name": "tokenWallet",
      "outputs": [
        {
          "internalType": "address",
          "name": "",
          "type": "address"
        }
      ],
      "payable": false,
      "stateMutability": "view",
      "type": "function"
    },
    {
      "constant": true,
      "inputs": [],
      "name": "wallet",
      "outputs": [
        {
          "internalType": "address payable",
          "name": "",
          "type": "address"
        }
      ],
      "payable": false,
      "stateMutability": "view",
      "type": "function"
    },
    {
      "constant": true,
      "inputs": [],
      "name": "weiRaised",
      "outputs": [
        {
          "internalType": "uint256",
          "name": "",
          "type": "uint256"
        }
      ],
      "payable": false,
      "stateMutability": "view",
      "type": "function"
    },
    {
      "constant": true,
      "inputs": [],
      "name": "purchaseToken",
      "outputs": [
        {
          "internalType": "contract IERC20",
          "name": "",
          "type": "address"
        }
      ],
      "payable": false,
      "stateMutability": "view",
      "type": "function"
    }
  ],
  "bytecode": "0x60806040523480156200001157600080fd5b506040516200365e3803806200365e83398181016040526101008110156200003857600080fd5b8101908080519060200190929190805190602001909291908051906020019092919080519060200190929190805190602001909291908051906020019092919080519060200190929190805190602001909291905050506012600a0a81028383868a8a8a60016000806101000a81548160ff021916908315150217905550600083116200012d576040517f08c379a00000000000000000000000000000000000000000000000000000000081526004018080602001828103825260148152602001807f43726f776473616c653a2072617465206973203000000000000000000000000081525060200191505060405180910390fd5b600073ffffffffffffffffffffffffffffffffffffffff168273ffffffffffffffffffffffffffffffffffffffff161415620001b5576040517f08c379a0000000000000000000000000000000000000000000000000000000008152600401808060200182810382526025815260200180620036396025913960400191505060405180910390fd5b600073ffffffffffffffffffffffffffffffffffffffff168173ffffffffffffffffffffffffffffffffffffffff1614156200023d576040517f08c379a0000000000000000000000000000000000000000000000000000000008152600401808060200182810382526024815260200180620035e86024913960400191505060405180910390fd5b8260018190555081600260006101000a81548173ffffffffffffffffffffffffffffffffffffffff021916908373ffffffffffffffffffffffffffffffffffffffff16021790555080600360006101000a81548173ffffffffffffffffffffffffffffffffffffffff021916908373ffffffffffffffffffffffffffffffffffffffff160217905550505050600073ffffffffffffffffffffffffffffffffffffffff168173ffffffffffffffffffffffffffffffffffffffff16141562000351576040517f08c379a00000000000000000000000000000000000000000000000000000000081526004018080602001828103825260348152602001806200357d6034913960400191505060405180910390fd5b80600560006101000a81548173ffffffffffffffffffffffffffffffffffffffff021916908373ffffffffffffffffffffffffffffffffffffffff1602179055505042821015620003ee576040517f08c379a00000000000000000000000000000000000000000000000000000000081526004018080602001828103825260338152602001806200354a6033913960400191505060405180910390fd5b81811162000448576040517f08c379a0000000000000000000000000000000000000000000000000000000008152600401808060200182810382526037815260200180620035b16037913960400191505060405180910390fd5b8160068190555080600781905550505060008111620004cf576040517f08c379a00000000000000000000000000000000000000000000000000000000081526004018080602001828103825260198152602001807f43617070656443726f776473616c653a2063617020697320300000000000000081525060200191505060405180910390fd5b8060088190555050600073ffffffffffffffffffffffffffffffffffffffff168873ffffffffffffffffffffffffffffffffffffffff1614156200055f576040517f08c379a000000000000000000000000000000000000000000000000000000000815260040180806020018281038252602d8152602001806200360c602d913960400191505060405180910390fd5b87600960006101000a81548173ffffffffffffffffffffffffffffffffffffffff021916908373ffffffffffffffffffffffffffffffffffffffff1602179055505050505050505050612f9280620005b86000396000f3fe6080604052600436106200010a5760003560e01c8063521eb2731162000097578063bf5839031162000061578063bf5839031462000413578063bff99c6c1462000441578063f887d019146200049b578063fc0c546a1462000504576200010a565b8063521eb273146200029557806371d0e2c014620002ef578063a95c4d62146200038b578063b7a8807c14620003e5576200010a565b80634042b66f11620000d95780634042b66f14620001d557806347535d7b14620002035780634b6753bc14620002355780634f9359451462000263576200010a565b80631515bc2b14620001165780632c4e722e1462000148578063355274ea14620001765780633610724e14620001a4575b620001146200055e565b005b3480156200012357600080fd5b506200012e620005ca565b604051808215151515815260200191505060405180910390f35b3480156200015557600080fd5b5062000160620005d6565b6040518082815260200191505060405180910390f35b3480156200018357600080fd5b506200018e620005e0565b6040518082815260200191505060405180910390f35b620001d360048036036020811015620001bc57600080fd5b8101908080359060200190929190505050620005ea565b005b348015620001e257600080fd5b50620001ed62000791565b6040518082815260200191505060405180910390f35b3480156200021057600080fd5b506200021b6200079b565b604051808215151515815260200191505060405180910390f35b3480156200024257600080fd5b506200024d620007b7565b6040518082815260200191505060405180910390f35b3480156200027057600080fd5b506200027b620007c1565b604051808215151515815260200191505060405180910390f35b348015620002a257600080fd5b50620002ad620007d7565b604051808273ffffffffffffffffffffffffffffffffffffffff1673ffffffffffffffffffffffffffffffffffffffff16815260200191505060405180910390f35b348015620002fc57600080fd5b5062000342600480360360208110156200031557600080fd5b81019080803573ffffffffffffffffffffffffffffffffffffffff16906020019092919050505062000801565b604051808373ffffffffffffffffffffffffffffffffffffffff1673ffffffffffffffffffffffffffffffffffffffff1681526020018281526020019250505060405180910390f35b3480156200039857600080fd5b50620003a362000845565b604051808273ffffffffffffffffffffffffffffffffffffffff1673ffffffffffffffffffffffffffffffffffffffff16815260200191505060405180910390f35b348015620003f257600080fd5b50620003fd6200086f565b6040518082815260200191505060405180910390f35b3480156200042057600080fd5b506200042b62000879565b6040518082815260200191505060405180910390f35b3480156200044e57600080fd5b506200045962000a8a565b604051808273ffffffffffffffffffffffffffffffffffffffff1673ffffffffffffffffffffffffffffffffffffffff16815260200191505060405180910390f35b348015620004a857600080fd5b50620004ee60048036036020811015620004c157600080fd5b81019080803573ffffffffffffffffffffffffffffffffffffffff16906020019092919050505062000ab4565b6040518082815260200191505060405180910390f35b3480156200051157600080fd5b506200051c62000acc565b604051808273ffffffffffffffffffffffffffffffffffffffff1673ffffffffffffffffffffffffffffffffffffffff16815260200191505060405180910390f35b600260009054906101000a900473ffffffffffffffffffffffffffffffffffffffff1673ffffffffffffffffffffffffffffffffffffffff166108fc349081150290604051600060405180830381858888f19350505050158015620005c7573d6000803e3d6000fd5b50565b60006007544211905090565b6000600154905090565b6000600854905090565b6000809054906101000a900460ff166200066c576040517f08c379a000000000000000000000000000000000000000000000000000000000815260040180806020018281038252601f8152602001807f5265656e7472616e637947756172643a207265656e7472616e742063616c6c0081525060200191505060405180910390fd5b60008060006101000a81548160ff02191690831515021790555060006012600a0a8202905060006200069d62000af6565b9050620006ab818362000afe565b6000620006b88362000ba8565b9050620006d18360045462000bc890919063ffffffff16565b600481905550620006e3828262000c51565b8173ffffffffffffffffffffffffffffffffffffffff166200070462000af6565b73ffffffffffffffffffffffffffffffffffffffff167f6faf93231a456e552dbc9961f58d9713ee4f2e69d15f1975b050ef0911053a7b8584604051808381526020018281526020019250505060405180910390a362000765828462000c61565b62000771828462000d62565b50505060016000806101000a81548160ff02191690831515021790555050565b6000600454905090565b60006006544210158015620007b257506007544211155b905090565b6000600754905090565b6000600854620007d062000791565b1015905090565b6000600260009054906101000a900473ffffffffffffffffffffffffffffffffffffffff16905090565b600b6020528060005260406000206000915090508060000160009054906101000a900473ffffffffffffffffffffffffffffffffffffffff16908060010154905082565b6000600960009054906101000a900473ffffffffffffffffffffffffffffffffffffffff16905090565b6000600654905090565b600062000a856200088962000acc565b73ffffffffffffffffffffffffffffffffffffffff166370a08231600560009054906101000a900473ffffffffffffffffffffffffffffffffffffffff166040518263ffffffff1660e01b8152600401808273ffffffffffffffffffffffffffffffffffffffff1673ffffffffffffffffffffffffffffffffffffffff16815260200191505060206040518083038186803b1580156200092857600080fd5b505afa1580156200093d573d6000803e3d6000fd5b505050506040513d60208110156200095457600080fd5b81019080805190602001909291905050506200096f62000acc565b73ffffffffffffffffffffffffffffffffffffffff1663dd62ed3e600560009054906101000a900473ffffffffffffffffffffffffffffffffffffffff16306040518363ffffffff1660e01b8152600401808373ffffffffffffffffffffffffffffffffffffffff1673ffffffffffffffffffffffffffffffffffffffff1681526020018273ffffffffffffffffffffffffffffffffffffffff1673ffffffffffffffffffffffffffffffffffffffff1681526020019250505060206040518083038186803b15801562000a4257600080fd5b505afa15801562000a57573d6000803e3d6000fd5b505050506040513d602081101562000a6e57600080fd5b810190808051906020019092919050505062000d66565b905090565b6000600560009054906101000a900473ffffffffffffffffffffffffffffffffffffffff16905090565b600a6020528060005260406000206000915090505481565b6000600360009054906101000a900473ffffffffffffffffffffffffffffffffffffffff16905090565b600033905090565b62000b0a828262000d81565b6000600a60008473ffffffffffffffffffffffffffffffffffffffff1673ffffffffffffffffffffffffffffffffffffffff168152602001908152602001600020541462000ba4576040517f08c379a000000000000000000000000000000000000000000000000000000000815260040180806020018281038252604081526020018062002f1e6040913960400191505060405180910390fd5b5050565b600062000bc16001548362000e2790919063ffffffff16565b9050919050565b60008082840190508381101562000c47576040517f08c379a000000000000000000000000000000000000000000000000000000000815260040180806020018281038252601b8152602001807f536166654d6174683a206164646974696f6e206f766572666c6f77000000000081525060200191505060405180910390fd5b8091505092915050565b62000c5d828262000eb2565b5050565b62000c6d8282620010c0565b62000cc78262000c7c620007d7565b83600960009054906101000a900473ffffffffffffffffffffffffffffffffffffffff1673ffffffffffffffffffffffffffffffffffffffff16620010c4909392919063ffffffff16565b62000d1b81600a60008573ffffffffffffffffffffffffffffffffffffffff1673ffffffffffffffffffffffffffffffffffffffff1681526020019081526020016000205462000bc890919063ffffffff16565b600a60008473ffffffffffffffffffffffffffffffffffffffff1673ffffffffffffffffffffffffffffffffffffffff168152602001908152602001600020819055505050565b5050565b600081831062000d77578162000d79565b825b905092915050565b62000d8d8282620011cc565b60085462000dae8262000d9f62000791565b62000bc890919063ffffffff16565b111562000e23576040517f08c379a000000000000000000000000000000000000000000000000000000000815260040180806020018281038252601d8152602001807f43617070656443726f776473616c653a2063617020657863656564656400000081525060200191505060405180910390fd5b5050565b60008083141562000e3c576000905062000eac565b600082840290508284828162000e4e57fe5b041462000ea7576040517f08c379a000000000000000000000000000000000000000000000000000000000815260040180806020018281038252602181526020018062002e616021913960400191505060405180910390fd5b809150505b92915050565b6000600b60008473ffffffffffffffffffffffffffffffffffffffff1673ffffffffffffffffffffffffffffffffffffffff1681526020019081526020016000209050600073ffffffffffffffffffffffffffffffffffffffff168160000160009054906101000a900473ffffffffffffffffffffffffffffffffffffffff1673ffffffffffffffffffffffffffffffffffffffff161462000fa0576040517f08c379a000000000000000000000000000000000000000000000000000000000815260040180806020018281038252604881526020018062002eac6048913960600191505060405180910390fd5b824260405162000fb09062001600565b808373ffffffffffffffffffffffffffffffffffffffff1673ffffffffffffffffffffffffffffffffffffffff16815260200182815260200192505050604051809103906000f0801580156200100a573d6000803e3d6000fd5b508160000160006101000a81548173ffffffffffffffffffffffffffffffffffffffff021916908373ffffffffffffffffffffffffffffffffffffffff160217905550818160010181905550620010bb6200106462000a8a565b8260000160009054906101000a900473ffffffffffffffffffffffffffffffffffffffff16846200109462000acc565b73ffffffffffffffffffffffffffffffffffffffff16620010c4909392919063ffffffff16565b505050565b5050565b620011c6848573ffffffffffffffffffffffffffffffffffffffff166323b872dd905060e01b858585604051602401808473ffffffffffffffffffffffffffffffffffffffff1673ffffffffffffffffffffffffffffffffffffffff1681526020018373ffffffffffffffffffffffffffffffffffffffff1673ffffffffffffffffffffffffffffffffffffffff1681526020018281526020019350505050604051602081830303815290604052907bffffffffffffffffffffffffffffffffffffffffffffffffffffffff19166020820180517bffffffffffffffffffffffffffffffffffffffffffffffffffffffff838183161783525050505062001259565b50505050565b620011d66200079b565b62001249576040517f08c379a00000000000000000000000000000000000000000000000000000000081526004018080602001828103825260188152602001807f54696d656443726f776473616c653a206e6f74206f70656e000000000000000081525060200191505060405180910390fd5b620012558282620014b0565b5050565b6200127a8273ffffffffffffffffffffffffffffffffffffffff16620015b4565b620012ed576040517f08c379a000000000000000000000000000000000000000000000000000000000815260040180806020018281038252601f8152602001807f5361666545524332303a2063616c6c20746f206e6f6e2d636f6e74726163740081525060200191505060405180910390fd5b600060608373ffffffffffffffffffffffffffffffffffffffff16836040518082805190602001908083835b602083106200133e578051825260208201915060208101905060208303925062001319565b6001836020036101000a0380198251168184511680821785525050505050509050019150506000604051808303816000865af19150503d8060008114620013a2576040519150601f19603f3d011682016040523d82523d6000602084013e620013a7565b606091505b50915091508162001420576040517f08c379a00000000000000000000000000000000000000000000000000000000081526004018080602001828103825260208152602001807f5361666545524332303a206c6f772d6c6576656c2063616c6c206661696c656481525060200191505060405180910390fd5b600081511115620014aa578080602001905160208110156200144157600080fd5b8101908080519060200190929190505050620014a9576040517f08c379a000000000000000000000000000000000000000000000000000000000815260040180806020018281038252602a81526020018062002ef4602a913960400191505060405180910390fd5b5b50505050565b600073ffffffffffffffffffffffffffffffffffffffff168273ffffffffffffffffffffffffffffffffffffffff16141562001538576040517f08c379a000000000000000000000000000000000000000000000000000000000815260040180806020018281038252602a81526020018062002e82602a913960400191505060405180910390fd5b6000811415620015b0576040517f08c379a00000000000000000000000000000000000000000000000000000000081526004018080602001828103825260198152602001807f43726f776473616c653a20776569416d6f756e7420697320300000000000000081525060200191505060405180910390fd5b5050565b60008060007fc5d2460186f7233c927e7db2dcc703c0e500b653ca82273b7bfad8045d85a47060001b9050833f9150808214158015620015f757506000801b8214155b92505050919050565b611852806200160f8339019056fe6080604052604051806040016040528061025861ffff1681526020016104b061ffff168152506006906002620000379291906200040f565b50604051806040016040528061012c61ffff16815260200161012c61ffff1681525060079060026200006b9291906200040f565b506040518060400160405280602860ff168152602001603c60ff1681525060089060026200009b92919062000467565b50348015620000a957600080fd5b50604051620018523803806200185283398181016040526040811015620000cf57600080fd5b8101908080519060200190929190805190602001909291905050506000620000fc6200037e60201b60201c565b9050806000806101000a81548173ffffffffffffffffffffffffffffffffffffffff021916908373ffffffffffffffffffffffffffffffffffffffff1602179055508073ffffffffffffffffffffffffffffffffffffffff16600073ffffffffffffffffffffffffffffffffffffffff167f8be0079c531659141344cd1fd0a4f28419497f9722a3daafe3b4186f6b6457e060405160405180910390a350600073ffffffffffffffffffffffffffffffffffffffff168273ffffffffffffffffffffffffffffffffffffffff16141562000222576040517f08c379a0000000000000000000000000000000000000000000000000000000008152600401808060200182810382526033815260200180620017ea6033913960400191505060405180910390fd5b81600160006101000a81548173ffffffffffffffffffffffffffffffffffffffff021916908373ffffffffffffffffffffffffffffffffffffffff1602179055508060028190555060008090505b6006805490508110156200030057620002b2600682815481106200029057fe5b90600052602060002001546003546200038660201b62000a981790919060201c565b600381905550620002ec60088281548110620002ca57fe5b90600052602060002001546004546200038660201b62000a981790919060201c565b600481905550808060010191505062000270565b50426200031e600354836200038660201b62000a981790919060201c565b1162000376576040517f08c379a00000000000000000000000000000000000000000000000000000000081526004018080602001828103825260358152602001806200181d6035913960400191505060405180910390fd5b5050620004e6565b600033905090565b60008082840190508381101562000405576040517f08c379a000000000000000000000000000000000000000000000000000000000815260040180806020018281038252601b8152602001807f536166654d6174683a206164646974696f6e206f766572666c6f77000000000081525060200191505060405180910390fd5b8091505092915050565b82805482825590600052602060002090810192821562000454579160200282015b8281111562000453578251829061ffff1690559160200191906001019062000430565b5b509050620004639190620004be565b5090565b828054828255906000526020600020908101928215620004ab579160200282015b82811115620004aa578251829060ff1690559160200191906001019062000488565b5b509050620004ba9190620004be565b5090565b620004e391905b80821115620004df576000816000905550600101620004c5565b5090565b90565b6112f480620004f66000396000f3fe608060405234801561001057600080fd5b506004361061009e5760003560e01c80638da5cb5b116100665780638da5cb5b146101b15780638f32d59b146101fb5780639852595c1461021d578063be9a655514610275578063f2fde38b146102935761009e565b80630fb5a6b4146100a35780631726cbc8146100c1578063191655871461011957806338af3eed1461015d578063715018a6146101a7575b600080fd5b6100ab6102d7565b6040518082815260200191505060405180910390f35b610103600480360360208110156100d757600080fd5b81019080803573ffffffffffffffffffffffffffffffffffffffff1690602001909291905050506102e1565b6040518082815260200191505060405180910390f35b61015b6004803603602081101561012f57600080fd5b81019080803573ffffffffffffffffffffffffffffffffffffffff169060200190929190505050610344565b005b6101656104fb565b604051808273ffffffffffffffffffffffffffffffffffffffff1673ffffffffffffffffffffffffffffffffffffffff16815260200191505060405180910390f35b6101af610525565b005b6101b961065e565b604051808273ffffffffffffffffffffffffffffffffffffffff1673ffffffffffffffffffffffffffffffffffffffff16815260200191505060405180910390f35b610203610687565b604051808215151515815260200191505060405180910390f35b61025f6004803603602081101561023357600080fd5b81019080803573ffffffffffffffffffffffffffffffffffffffff1690602001909291905050506106e5565b6040518082815260200191505060405180910390f35b61027d61072e565b6040518082815260200191505060405180910390f35b6102d5600480360360208110156102a957600080fd5b81019080803573ffffffffffffffffffffffffffffffffffffffff169060200190929190505050610738565b005b6000600354905090565b600061033d600560008473ffffffffffffffffffffffffffffffffffffffff1673ffffffffffffffffffffffffffffffffffffffff1681526020019081526020016000205461032f846107be565b610a4e90919063ffffffff16565b9050919050565b600061034f826102e1565b9050600081116103aa576040517f08c379a000000000000000000000000000000000000000000000000000000000815260040180806020018281038252602581526020018061122a6025913960400191505060405180910390fd5b6103fc81600560008573ffffffffffffffffffffffffffffffffffffffff1673ffffffffffffffffffffffffffffffffffffffff16815260200190815260200160002054610a9890919063ffffffff16565b600560008473ffffffffffffffffffffffffffffffffffffffff1673ffffffffffffffffffffffffffffffffffffffff1681526020019081526020016000208190555061048c600160009054906101000a900473ffffffffffffffffffffffffffffffffffffffff16828473ffffffffffffffffffffffffffffffffffffffff16610b209092919063ffffffff16565b7fc7798891864187665ac6dd119286e44ec13f014527aeeb2b8eb3fd413df931798282604051808373ffffffffffffffffffffffffffffffffffffffff1673ffffffffffffffffffffffffffffffffffffffff1681526020018281526020019250505060405180910390a15050565b6000600160009054906101000a900473ffffffffffffffffffffffffffffffffffffffff16905090565b61052d610687565b61059f576040517f08c379a00000000000000000000000000000000000000000000000000000000081526004018080602001828103825260208152602001807f4f776e61626c653a2063616c6c6572206973206e6f7420746865206f776e657281525060200191505060405180910390fd5b600073ffffffffffffffffffffffffffffffffffffffff166000809054906101000a900473ffffffffffffffffffffffffffffffffffffffff1673ffffffffffffffffffffffffffffffffffffffff167f8be0079c531659141344cd1fd0a4f28419497f9722a3daafe3b4186f6b6457e060405160405180910390a360008060006101000a81548173ffffffffffffffffffffffffffffffffffffffff021916908373ffffffffffffffffffffffffffffffffffffffff160217905550565b60008060009054906101000a900473ffffffffffffffffffffffffffffffffffffffff16905090565b60008060009054906101000a900473ffffffffffffffffffffffffffffffffffffffff1673ffffffffffffffffffffffffffffffffffffffff166106c9610bf1565b73ffffffffffffffffffffffffffffffffffffffff1614905090565b6000600560008373ffffffffffffffffffffffffffffffffffffffff1673ffffffffffffffffffffffffffffffffffffffff168152602001908152602001600020549050919050565b6000600254905090565b610740610687565b6107b2576040517f08c379a00000000000000000000000000000000000000000000000000000000081526004018080602001828103825260208152602001807f4f776e61626c653a2063616c6c6572206973206e6f7420746865206f776e657281525060200191505060405180910390fd5b6107bb81610bf9565b50565b6000808273ffffffffffffffffffffffffffffffffffffffff166370a08231306040518263ffffffff1660e01b8152600401808273ffffffffffffffffffffffffffffffffffffffff1673ffffffffffffffffffffffffffffffffffffffff16815260200191505060206040518083038186803b15801561083e57600080fd5b505afa158015610852573d6000803e3d6000fd5b505050506040513d602081101561086857600080fd5b8101908080519060200190929190505050905060006108cf600560008673ffffffffffffffffffffffffffffffffffffffff1673ffffffffffffffffffffffffffffffffffffffff1681526020019081526020016000205483610a9890919063ffffffff16565b90506108e8600354600254610a9890919063ffffffff16565b42106108f8578092505050610a49565b600080905060008090506000600254905060008090505b600680549050811015610a3f57600061095f6007838154811061092e57fe5b90600052602060002001546006848154811061094657fe5b9060005260206000200154610d3d90919063ffffffff16565b9050600061098d826008858154811061097457fe5b9060005260206000200154610d3d90919063ffffffff16565b905060008090505b82811015610a22576109c7600785815481106109ad57fe5b906000526020600020015486610a9890919063ffffffff16565b9450428511156109da5760019650610a22565b610a13610a046004546109f6858c610d8790919063ffffffff16565b610d3d90919063ffffffff16565b87610a9890919063ffffffff16565b95508080600101915050610995565b508515610a30575050610a3f565b5050808060010191505061090f565b5081955050505050505b919050565b6000610a9083836040518060400160405280601e81526020017f536166654d6174683a207375627472616374696f6e206f766572666c6f770000815250610e0d565b905092915050565b600080828401905083811015610b16576040517f08c379a000000000000000000000000000000000000000000000000000000000815260040180806020018281038252601b8152602001807f536166654d6174683a206164646974696f6e206f766572666c6f77000000000081525060200191505060405180910390fd5b8091505092915050565b610bec838473ffffffffffffffffffffffffffffffffffffffff1663a9059cbb905060e01b8484604051602401808373ffffffffffffffffffffffffffffffffffffffff1673ffffffffffffffffffffffffffffffffffffffff16815260200182815260200192505050604051602081830303815290604052907bffffffffffffffffffffffffffffffffffffffffffffffffffffffff19166020820180517bffffffffffffffffffffffffffffffffffffffffffffffffffffffff8381831617835250505050610ecd565b505050565b600033905090565b600073ffffffffffffffffffffffffffffffffffffffff168173ffffffffffffffffffffffffffffffffffffffff161415610c7f576040517f08c379a000000000000000000000000000000000000000000000000000000000815260040180806020018281038252602681526020018061124f6026913960400191505060405180910390fd5b8073ffffffffffffffffffffffffffffffffffffffff166000809054906101000a900473ffffffffffffffffffffffffffffffffffffffff1673ffffffffffffffffffffffffffffffffffffffff167f8be0079c531659141344cd1fd0a4f28419497f9722a3daafe3b4186f6b6457e060405160405180910390a3806000806101000a81548173ffffffffffffffffffffffffffffffffffffffff021916908373ffffffffffffffffffffffffffffffffffffffff16021790555050565b6000610d7f83836040518060400160405280601a81526020017f536166654d6174683a206469766973696f6e206279207a65726f000000000000815250611118565b905092915050565b600080831415610d9a5760009050610e07565b6000828402905082848281610dab57fe5b0414610e02576040517f08c379a00000000000000000000000000000000000000000000000000000000081526004018080602001828103825260218152602001806112756021913960400191505060405180910390fd5b809150505b92915050565b6000838311158290610eba576040517f08c379a00000000000000000000000000000000000000000000000000000000081526004018080602001828103825283818151815260200191508051906020019080838360005b83811015610e7f578082015181840152602081019050610e64565b50505050905090810190601f168015610eac5780820380516001836020036101000a031916815260200191505b509250505060405180910390fd5b5060008385039050809150509392505050565b610eec8273ffffffffffffffffffffffffffffffffffffffff166111de565b610f5e576040517f08c379a000000000000000000000000000000000000000000000000000000000815260040180806020018281038252601f8152602001807f5361666545524332303a2063616c6c20746f206e6f6e2d636f6e74726163740081525060200191505060405180910390fd5b600060608373ffffffffffffffffffffffffffffffffffffffff16836040518082805190602001908083835b60208310610fad5780518252602082019150602081019050602083039250610f8a565b6001836020036101000a0380198251168184511680821785525050505050509050019150506000604051808303816000865af19150503d806000811461100f576040519150601f19603f3d011682016040523d82523d6000602084013e611014565b606091505b50915091508161108c576040517f08c379a00000000000000000000000000000000000000000000000000000000081526004018080602001828103825260208152602001807f5361666545524332303a206c6f772d6c6576656c2063616c6c206661696c656481525060200191505060405180910390fd5b600081511115611112578080602001905160208110156110ab57600080fd5b8101908080519060200190929190505050611111576040517f08c379a000000000000000000000000000000000000000000000000000000000815260040180806020018281038252602a815260200180611296602a913960400191505060405180910390fd5b5b50505050565b600080831182906111c4576040517f08c379a00000000000000000000000000000000000000000000000000000000081526004018080602001828103825283818151815260200191508051906020019080838360005b8381101561118957808201518184015260208101905061116e565b50505050905090810190601f1680156111b65780820380516001836020036101000a031916815260200191505b509250505060405180910390fd5b5060008385816111d057fe5b049050809150509392505050565b60008060007fc5d2460186f7233c927e7db2dcc703c0e500b653ca82273b7bfad8045d85a47060001b9050833f915080821415801561122057506000801b8214155b9250505091905056fe546f6b656e56657374696e6752657461696c3a206e6f20746f6b656e7320617265206475654f776e61626c653a206e6577206f776e657220697320746865207a65726f2061646472657373536166654d6174683a206d756c7469706c69636174696f6e206f766572666c6f775361666545524332303a204552433230206f7065726174696f6e20646964206e6f742073756363656564a265627a7a7231582086e249aeb42618ded5565584aba1b33da1b190c352e8f4db149a719786516b7564736f6c63430005100032546f6b656e56657374696e6752657461696c3a2062656e656669636961727920697320746865207a65726f2061646472657373546f6b656e56657374696e6752657461696c3a2066696e616c2074696d65206973206265666f72652063757272656e742074696d65536166654d6174683a206d756c7469706c69636174696f6e206f766572666c6f7743726f776473616c653a2062656e656669636961727920697320746865207a65726f206164647265737343726f776473616c65466f7252657461696c3a3a6465706c6f793a205468652061646472657373206861732070617274696369706174656420696e2063726f776466756e64696e675361666545524332303a204552433230206f7065726174696f6e20646964206e6f74207375636365656443726f776473616c65466f7252657461696c3a205468652061646472657373206861732070617274696369706174656420696e2063726f776466756e64696e67a265627a7a72315820bdcdc210520421f2f232eaed3bd463b63e670eb50b40bf286b4fe3b67e473db064736f6c6343000510003254696d656443726f776473616c653a206f70656e696e672074696d65206973206265666f72652063757272656e742074696d65416c6c6f77616e636543726f776473616c653a20746f6b656e2077616c6c657420697320746865207a65726f206164647265737354696d656443726f776473616c653a206f70656e696e672074696d65206973206e6f74206265666f726520636c6f73696e672074696d6543726f776473616c653a20746f6b656e20697320746865207a65726f206164647265737343726f776473616c653a20707572636861736520746f6b656e20697320746865207a65726f206164647265737343726f776473616c653a2077616c6c657420697320746865207a65726f2061646472657373",
  "source": "pragma solidity ^0.5.0;\r\n\r\nimport \"@openzeppelin/contracts/math/SafeMath.sol\";\r\nimport \"@openzeppelin/contracts/token/ERC20/IERC20.sol\";\r\nimport \"@openzeppelin/contracts/token/ERC20/SafeERC20.sol\";\r\nimport \"./CrowdsaleByERC20/Crowdsale.sol\";\r\nimport \"./CrowdsaleByERC20/emission/AllowanceCrowdsale.sol\";\r\nimport \"./CrowdsaleByERC20/validation/TimedCrowdsale.sol\";\r\nimport \"./CrowdsaleByERC20/validation/CappedCrowdsale.sol\";\r\nimport \"./CrowdsaleByERC20/emission/TokenVestingRetail.sol\";\r\n\r\ncontract CrowdsaleForRetail is Crowdsale, AllowanceCrowdsale, TimedCrowdsale, CappedCrowdsale {\r\n    using SafeMath for uint256;\r\n    using SafeERC20 for IERC20;\r\n\r\n    // \r\n    IERC20 private _purchaseToken;\r\n    // \r\n    mapping(address => uint256) public joined;\r\n\r\n    // \r\n    struct TokenVestingInfo {\r\n        address tokenVesting;\r\n        uint256 tokenAmount;\r\n    }\r\n\r\n    // Token\r\n    mapping(address => TokenVestingInfo) public TokenVestingInfoByBeneficiaryToken;\r\n\r\n    constructor(\r\n        IERC20 purchaseToken,   // \r\n        uint256 rate,           // \r\n        address payable wallet, // ETH\r\n        IERC20 token,           // \r\n        address tokenWallet,     // \r\n        uint256 openingTime,    // \r\n        uint256 closingTime,     // \r\n        uint256 cap             // ,wei\r\n    )\r\n        AllowanceCrowdsale(tokenWallet) \r\n        TimedCrowdsale(openingTime, closingTime) \r\n        CappedCrowdsale(cap * (10**uint256(18))) \r\n        Crowdsale(rate, wallet, token) \r\n        public {\r\n        require(address(purchaseToken) != address(0), \"Crowdsale: purchase token is the zero address\");\r\n\r\n        _purchaseToken = purchaseToken;\r\n    }\r\n\r\n    /**\r\n     * @return the purchaseToken being buy.\r\n     */\r\n    function purchaseToken() public view returns (IERC20) {\r\n        return _purchaseToken;\r\n    }\r\n\r\n    // \r\n    // \r\n    function _preValidatePurchase(address beneficiary, uint256 weiAmount) internal view {\r\n        super._preValidatePurchase(beneficiary, weiAmount);\r\n        // \r\n        require(joined[beneficiary] == 0, 'CrowdsaleForRetail: The address has participated in crowdfunding');\r\n    }\r\n\r\n    // \r\n    function _updatePurchasingState(address beneficiary, uint256 weiAmount) internal {\r\n        super._updatePurchasingState(beneficiary, weiAmount);\r\n        // DAT\r\n        _purchaseToken.safeTransferFrom(beneficiary, wallet(), weiAmount);\r\n        // \r\n        joined[beneficiary] = joined[beneficiary].add(weiAmount);\r\n    }\r\n\r\n    // \r\n    function _deliverTokens(address beneficiary, uint256 tokenAmount) internal {\r\n        TokenVestingInfo storage info = TokenVestingInfoByBeneficiaryToken[beneficiary];\r\n        require(info.tokenVesting == address(0), 'CrowdsaleForRetail::deploy: The address has participated in crowdfunding');\r\n\r\n        info.tokenVesting = address(new TokenVestingRetail(\r\n            beneficiary, // \r\n            block.timestamp // \r\n        ));\r\n        info.tokenAmount = tokenAmount;\r\n        // \r\n        token().safeTransferFrom(tokenWallet(), info.tokenVesting, tokenAmount);\r\n    }\r\n}\r\n",
  "sourcePath": "/home/blues/Workspaces/DaoswapDex/daoswapdex-heco-testnet/core-crowdsale/contracts/Crowdsale/CrowdsaleForRetail.sol",
  "compiler": {
    "name": "solc",
    "version": "0.5.16+commit.9c3226ce.Emscripten.clang"
  },
  "schemaVersion": "3.3.4",
  "updatedAt": "2021-07-03T09:37:50.217Z",
  "networkType": "ethereum",
  "devdoc": {
    "methods": {
      "cap()": {
        "return": "the cap of the crowdsale."
      },
      "capReached()": {
        "details": "Checks whether the cap has been reached.",
        "return": "Whether the cap was reached"
      },
      "closingTime()": {
        "return": "the crowdsale closing time."
      },
      "hasClosed()": {
        "details": "Checks whether the period in which the crowdsale is open has already elapsed.",
        "return": "Whether crowdsale period has elapsed"
      },
      "isOpen()": {
        "return": "true if the crowdsale is open, false otherwise."
      },
      "openingTime()": {
        "return": "the crowdsale opening time."
      },
      "purchaseToken()": {
        "return": "the purchaseToken being buy."
      },
      "rate()": {
        "return": "the number of token units a buyer gets per wei."
      },
      "remainingTokens()": {
        "details": "Checks the amount of tokens left in the allowance.",
        "return": "Amount of tokens left in the allowance"
      },
      "token()": {
        "return": "the token being sold."
      },
      "tokenWallet()": {
        "return": "the address of the wallet that will hold the tokens."
      },
      "wallet()": {
        "return": "the address where funds are collected."
      },
      "weiRaised()": {
        "return": "the amount of wei raised."
      }
    }
  },
  "userdoc": {
    "methods": {}
  }
}